{
  "contractName": "MyContract",
  "abi": [
    {
      "inputs": [
        {
          "internalType": "uint256",
          "name": "",
          "type": "uint256"
        }
      ],
      "name": "documents",
      "outputs": [
        {
          "internalType": "string",
          "name": "",
          "type": "string"
        }
      ],
      "stateMutability": "view",
      "type": "function",
      "constant": true
    },
    {
      "inputs": [
        {
          "internalType": "string",
          "name": "document",
          "type": "string"
        }
      ],
      "name": "uploadDocuments",
      "outputs": [],
      "stateMutability": "nonpayable",
      "type": "function"
    },
    {
      "inputs": [],
      "name": "getDocumentCount",
      "outputs": [
        {
          "internalType": "uint256",
          "name": "",
          "type": "uint256"
        }
      ],
      "stateMutability": "view",
      "type": "function",
      "constant": true
    }
  ],
  "bytecode": "0x608060405234801561001057600080fd5b5061056d806100206000396000f3fe608060405234801561001057600080fd5b50600436106100415760003560e01c80633aaa6848146100465780633d1c227314610062578063c2ed2b0514610080575b600080fd5b610060600480360381019061005b91906102c7565b6100b0565b005b61006a6100ef565b604051610077919061039b565b60405180910390f35b61009a60048036038101906100959190610308565b6100fb565b6040516100a79190610379565b60405180910390f35b6000819080600181540180825580915050600190039060005260206000200160009091909190915090805190602001906100eb9291906101a7565b5050565b60008080549050905090565b6000818154811061010b57600080fd5b9060005260206000200160009150905080546101269061047f565b80601f01602080910402602001604051908101604052809291908181526020018280546101529061047f565b801561019f5780601f106101745761010080835404028352916020019161019f565b820191906000526020600020905b81548152906001019060200180831161018257829003601f168201915b505050505081565b8280546101b39061047f565b90600052602060002090601f0160209004810192826101d5576000855561021c565b82601f106101ee57805160ff191683800117855561021c565b8280016001018555821561021c579182015b8281111561021b578251825591602001919060010190610200565b5b509050610229919061022d565b5090565b5b8082111561024657600081600090555060010161022e565b5090565b600061025d610258846103e7565b6103b6565b90508281526020810184848401111561027557600080fd5b61028084828561043d565b509392505050565b600082601f83011261029957600080fd5b81356102a984826020860161024a565b91505092915050565b6000813590506102c181610520565b92915050565b6000602082840312156102d957600080fd5b600082013567ffffffffffffffff8111156102f357600080fd5b6102ff84828501610288565b91505092915050565b60006020828403121561031a57600080fd5b6000610328848285016102b2565b91505092915050565b600061033c82610417565b6103468185610422565b935061035681856020860161044c565b61035f8161050f565b840191505092915050565b61037381610433565b82525050565b600060208201905081810360008301526103938184610331565b905092915050565b60006020820190506103b0600083018461036a565b92915050565b6000604051905081810181811067ffffffffffffffff821117156103dd576103dc6104e0565b5b8060405250919050565b600067ffffffffffffffff821115610402576104016104e0565b5b601f19601f8301169050602081019050919050565b600081519050919050565b600082825260208201905092915050565b6000819050919050565b82818337600083830152505050565b60005b8381101561046a57808201518184015260208101905061044f565b83811115610479576000848401525b50505050565b6000600282049050600182168061049757607f821691505b602082108114156104ab576104aa6104b1565b5b50919050565b7f4e487b7100000000000000000000000000000000000000000000000000000000600052602260045260246000fd5b7f4e487b7100000000000000000000000000000000000000000000000000000000600052604160045260246000fd5b6000601f19601f8301169050919050565b61052981610433565b811461053457600080fd5b5056fea2646970667358221220ca59acd5e8a2b6a44840f17efcea27f384111e3f6b7d1b6ee99197398bf50f9664736f6c63430008000033",
  "immutableReferences": {},
  "source": "pragma solidity ^0.8.0;\n\ncontract MyContract {\n    string[] public documents;\n\n    function uploadDocuments(string memory document) public {\n        documents.push(document);\n    }\n\n    function getDocumentCount() public view returns (uint) {\n        return documents.length;\n    }\n}\n",
  "sourcePath": "/Users/dineshmurugesan/dev/evault/contracts/MyContract.sol",
  "compiler": {
    "name": "solc",
    "version": "0.8.0+commit.c7dfd78e.Emscripten.clang"
  },
  "schemaVersion": "3.4.16",
  "updatedAt": "2024-07-13T21:10:23.267Z",
  "networkType": "ethereum",
  "devdoc": {
    "kind": "dev",
    "methods": {},
    "version": 1
  },
  "userdoc": {
    "kind": "user",
    "methods": {},
    "version": 1
  }
}